{
  "contractName": "TodoList",
  "abi": [
    {
      "constant": true,
      "inputs": [
        {
          "name": "",
          "type": "uint256"
        }
      ],
      "name": "todos",
      "outputs": [
        {
          "name": "",
          "type": "string"
        }
      ],
      "payable": false,
      "stateMutability": "view",
      "type": "function",
      "signature": "0xbc8bc2b4"
    },
    {
      "constant": true,
      "inputs": [],
      "name": "todoCount",
      "outputs": [
        {
          "name": "",
          "type": "uint256"
        }
      ],
      "payable": false,
      "stateMutability": "view",
      "type": "function",
      "signature": "0xfe0dee17"
    },
    {
      "inputs": [],
      "payable": false,
      "stateMutability": "nonpayable",
      "type": "constructor",
      "signature": "constructor"
    },
    {
      "constant": false,
      "inputs": [
        {
          "name": "_name",
          "type": "string"
        }
      ],
      "name": "addTodo",
      "outputs": [],
      "payable": false,
      "stateMutability": "nonpayable",
      "type": "function",
      "signature": "0x95ffebf5"
    },
    {
      "constant": false,
      "inputs": [
        {
          "name": "_index",
          "type": "uint256"
        }
      ],
      "name": "removeTodo",
      "outputs": [],
      "payable": false,
      "stateMutability": "nonpayable",
      "type": "function",
      "signature": "0x3be3d703"
    }
  ],
  "bytecode": "0x60806040526000805534801561001457600080fd5b506100626040805190810160405280600e81526020017f546f646f312864656661756c7429000000000000000000000000000000000000815250610067640100000000026401000000009004565b61015f565b600080815480929190600101919050555060018190806001815401808255809150509060018203906000526020600020016000909192909190915090805190602001906100b59291906100ba565b505050565b828054600181600116156101000203166002900490600052602060002090601f016020900481019282601f106100fb57805160ff1916838001178555610129565b82800160010185558215610129579182015b8281111561012857825182559160200191906001019061010d565b5b509050610136919061013a565b5090565b61015c91905b80821115610158576000816000905550600101610140565b5090565b90565b6104b08061016e6000396000f3fe608060405260043610610062576000357c0100000000000000000000000000000000000000000000000000000000900463ffffffff1680633be3d7031461006757806395ffebf5146100a2578063bc8bc2b41461016a578063fe0dee171461021e575b600080fd5b34801561007357600080fd5b506100a06004803603602081101561008a57600080fd5b8101908080359060200190929190505050610249565b005b3480156100ae57600080fd5b50610168600480360360208110156100c557600080fd5b81019080803590602001906401000000008111156100e257600080fd5b8201836020820111156100f457600080fd5b8035906020019184600183028401116401000000008311171561011657600080fd5b91908080601f016020809104026020016040519081016040528093929190818152602001838380828437600081840152601f19601f820116905080830192505050505050509192919290505050610283565b005b34801561017657600080fd5b506101a36004803603602081101561018d57600080fd5b81019080803590602001909291905050506102d6565b6040518080602001828103825283818151815260200191508051906020019080838360005b838110156101e35780820151818401526020810190506101c8565b50505050905090810190601f1680156102105780820380516001836020036101000a031916815260200191505b509250505060405180910390f35b34801561022a57600080fd5b50610233610391565b6040518082815260200191505060405180910390f35b60018181548110151561025857fe5b90600052602060002001600061026e9190610397565b60008081548092919060019003919050555050565b600080815480929190600101919050555060018190806001815401808255809150509060018203906000526020600020016000909192909190915090805190602001906102d19291906103df565b505050565b6001818154811015156102e557fe5b906000526020600020016000915090508054600181600116156101000203166002900480601f0160208091040260200160405190810160405280929190818152602001828054600181600116156101000203166002900480156103895780601f1061035e57610100808354040283529160200191610389565b820191906000526020600020905b81548152906001019060200180831161036c57829003601f168201915b505050505081565b60005481565b50805460018160011615610100020316600290046000825580601f106103bd57506103dc565b601f0160209004906000526020600020908101906103db919061045f565b5b50565b828054600181600116156101000203166002900490600052602060002090601f016020900481019282601f1061042057805160ff191683800117855561044e565b8280016001018555821561044e579182015b8281111561044d578251825591602001919060010190610432565b5b50905061045b919061045f565b5090565b61048191905b8082111561047d576000816000905550600101610465565b5090565b9056fea165627a7a7230582052c3f2127c1bc926e61d8936825facb8f4f9f78bb59b247c52d6833f4a1dcb3b0029",
  "source": "pragma solidity ^0.5.0;\r\n\r\ncontract TodoList {\r\n\r\n    uint public todoCount = 0;\r\n    string[] public todos;\r\n\r\n    constructor() public {\r\n        addTodo(\"Todo1(default)\");\r\n    }\r\n\r\n    struct Todo{\r\n        uint id;\r\n        string name;\r\n        bool completed;\r\n    }\r\n\r\n    // mapping(uint => Todo) public todos;\r\n\r\n    function addTodo(string memory _name) public {\r\n        todoCount++;\r\n        todos.push(_name);\r\n        // todos[todoCount] = Todo(todoCount, _name, false);\r\n    }\r\n\r\n    function removeTodo(uint _index) public {\r\n        delete todos[_index];\r\n        todoCount--;\r\n    }\r\n    \r\n\r\n}",
  "sourcePath": "C:/Users/SoftDev/Documents/TodoList/backend/BlockChainBasic/contracts/TodoList.sol",
  "compiler": {
    "name": "solc",
    "version": "0.5.0+commit.1d4f565a.Emscripten.clang"
  },
  "schemaVersion": "3.0.1",
  "updatedAt": "2023-05-27T16:05:23.169Z",
  "devdoc": {
    "methods": {}
  },
  "userdoc": {
    "methods": {}
  }
}